:020000040000fa
:080000001c02040000000000d6
:020000040000fa
:04000800f002000002
:020000040000fa
:04000c00f0020000fe
:020000040000fa
:04001000f0020000fa
:020000040000fa
:04001400f0020000f6
:020000040000fa
:04001800f0020000f2
:020000040000fa
:04001c00f0020000ee
:020000040000fa
:04002000f0020000ea
:020000040000fa
:04002400f0020000e6
:020000040000fa
:04002800f0020000e2
:020000040000fa
:04002c00f0020000de
:020000040000fa
:04003000f0020000da
:020000040000fa
:04003400f0020000d6
:020000040000fa
:04003800f0020000d2
:020000040000fa
:04003c00f0020000ce
:020000040000fa
:04004000f0020000ca
:020000040000fa
:04004400f0020000c6
:020000040000fa
:04004800f0020000c2
:020000040000fa
:04004c00f0020000be
:020000040000fa
:04005000f0020000ba
:020000040000fa
:04005400f0020000b6
:020000040000fa
:04005800f0020000b2
:020000040000fa
:04005c00f0020000ae
:020000040000fa
:04006000f0020000aa
:020000040000fa
:04006400f0020000a6
:020000040000fa
:04006800f0020000a2
:020000040000fa
:04006c00f00200009e
:020000040000fa
:04007000f00200009a
:020000040000fa
:04007400f002000096
:020000040000fa
:04007800f002000092
:020000040000fa
:04007c00f00200008e
:020000040000fa
:04008000f00200008a
:020000040000fa
:04008400f002000086
:020000040000fa
:04008800f002000082
:020000040000fa
:04008c00f00200007e
:020000040000fa
:04009000f00200007a
:020000040000fa
:04009400f002000076
:020000040000fa
:04009800f002000072
:020000040000fa
:04009c00f00200006e
:020000040000fa
:0400a000f00200006a
:020000040000fa
:0400a400f002000066
:020000040000fa
:0400a800f002000062
:020000040000fa
:0400ac00f00200005e
:020000040000fa
:0400b000f00200005a
:020000040000fa
:0400b400f002000056
:020000040000fa
:0400b800f002000052
:020000040000fa
:0400bc00f00200004e
:020000040000fa
:0400c000f00200004a
:020000040000fa
:0400c400f002000046
:020000040000fa
:0400c800f002000042
:020000040000fa
:0400cc00f00200003e
:020000040000fa
:0400d000f00200003a
:020000040000fa
:0400d400f002000036
:020000040000fa
:0400d800f002000032
:020000040000fa
:0400dc00f00200002e
:020000040000fa
:0400e000f00200002a
:020000040000fa
:0400e400f002000026
:020000040000fa
:0400e800f002000022
:020000040000fa
:0400ec00f00200001e
:020000040000fa
:0400f000f00200001a
:020000040000fa
:0400f400f002000016
:020000040000fa
:0400f800f002000012
:020000040000fa
:0400fc00f00200000e
:020000040000fa
:04010000f002000009
:020000040000fa
:04010400f002000005
:020000040000fa
:04010800f002000001
:020000040000fa
:04010c00f0020000fd
:020000040000fa
:04011000f0020000f9
:020000040000fa
:04011400f0020000f5
:020000040000fa
:04011800f0020000f1
:020000040000fa
:04011c00f0020000ed
:020000040000fa
:04012000f0020000e9
:020000040000fa
:04012400f0020000e5
:020000040000fa
:04012800f0020000e1
:020000040000fa
:04012c00f0020000dd
:020000040000fa
:04013000f0020000d9
:020000040000fa
:04013400f0020000d5
:020000040000fa
:04013800f0020000d1
:020000040000fa
:04013c00f0020000cd
:020000040000fa
:04014000f0020000c9
:020000040000fa
:04014400f0020000c5
:020000040000fa
:04014800f0020000c1
:020000040000fa
:04014c00f0020000bd
:020000040000fa
:04015000f0020000b9
:020000040000fa
:04015400f0020000b5
:020000040000fa
:04015800f0020000b1
:020000040000fa
:04015c00f0020000ad
:020000040000fa
:04016000f0020000a9
:020000040000fa
:04016400f0020000a5
:020000040000fa
:04020800f002000000
:020000040000fa
:04020c00f0020000fc
:020000040000fa
:04021000f0020000f8
:020000040000fa
:04021400f0020000f4
:020000040000fa
:04021800f0020000f0
:020000040000fa
:04021c00f0020000ec
:020000040000fa
:04022000f0020000e8
:020000040000fa
:04022400f0020000e4
:020000040000fa
:04022800f0020000e0
:020000040000fa
:04022c00f0020000dc
:020000040000fa
:04023000f0020000d8
:020000040000fa
:04023400f0020000d4
:020000040000fa
:04023800f0020000d0
:020000040000fa
:04023c00f0020000cc
:020000040000fa
:04024000f0020000c8
:020000040000fa
:04024400f0020000c4
:020000040000fa
:04024800f0020000c0
:020000040000fa
:04024c00f0020000bc
:020000040000fa
:04025000f0020000b8
:020000040000fa
:04025400f0020000b4
:020000040000fa
:04025800f0020000b0
:020000040000fa
:04025c00f0020000ac
:020000040000fa
:04026000f0020000a8
:020000040000fa
:04026400f0020000a4
:020000040000fa
:04026800f0020000a0
:020000040000fa
:04026c00f00200009c
:020000040000fa
:04027000f002000098
:020000040000fa
:04027400f002000094
:020000040000fa
:04027800f002000090
:020000040000fa
:04027c00f00200008c
:020000040000fa
:04028000f002000088
:020000040000fa
:04028400f002000084
:020000040000fa
:04028800f002000080
:020000040000fa
:04028c00f00200007c
:020000040000fa
:04029000f002000078
:020000040000fa
:04029400f002000074
:020000040000fa
:04029800f002000070
:020000040000fa
:04029c00f00200006c
:020000040000fa
:0402a000f002000068
:020000040000fa
:0402a400f002000064
:020000040000fa
:0402a800f002000060
:020000040000fa
:0402ac00f00200005c
:020000040000fa
:0402b000f002000058
:020000040000fa
:0402b400f002000054
:020000040000fa
:0402b800f002000050
:020000040000fa
:0402bc00f00200004c
:020000040000fa
:0402c000f002000048
:020000040000fa
:0402c400f002000044
:020000040000fa
:0402c800f002000040
:020000040000fa
:0402cc00f00200003c
:020000040000fa
:0402d000f002000038
:020000040000fa
:0402d400f002000034
:020000040000fa
:0402d800f002000030
:020000040000fa
:0402dc00f00200002c
:020000040000fa
:0402e000f002000028
:020000040000fa
:0402e400f002000024
:020000040000fa
:0402e800f002000020
:020000040000fa
:0402ec00f00200001c
:020000040000fa
:0402f000f002000018
:020000040000fa
:0402f400f002000014
:020000040000fa
:0402f800f002000010
:020000040000fa
:0402fc00f00200000c
:020000040000fa
:04030000f002000007
:020000040000fa
:04030400f002000003
:020000040000fa
:04030800f0020000ff
:020000040000fa
:04030c00f0020000fb
:020000040000fa
:04031000f0020000f7
:020000040000fa
:04031400f0020000f3
:020000040000fa
:04031800f0020000ef
:020000040000fa
:04031c00f0020000eb
:020000040000fa
:04032000f0020000e7
:020000040000fa
:04032400f0020000e3
:020000040000fa
:04032800f0020000df
:020000040000fa
:04032c00f0020000db
:020000040000fa
:04033000f0020000d7
:020000040000fa
:04033400f0020000d3
:020000040000fa
:04033800f0020000cf
:020000040000fa
:04033c00f0020000cb
:020000040000fa
:04034000f0020000c7
:020000040000fa
:04034400f0020000c3
:020000040000fa
:04034800f0020000bf
:020000040000fa
:04034c00f0020000bb
:020000040000fa
:04035000f0020000b7
:020000040000fa
:04035400f0020000b3
:020000040000fa
:04035800f0020000af
:020000040000fa
:04035c00f0020000ab
:020000040000fa
:04036000f0020000a7
:020000040000fa
:04036400f0020000a3
:020000040000fa
:10040000f03fb1000180b10006003500ee030900a5
:1004100000000000403fb1000180b100fbff3d0043
:100420001000b000203fb00002003500008009003d
:1004300000000000000006002f8620000e7f240030
:100440000e01880000000000000020000000e00015
:100450000200320000012000200288001400070082
:10046000630007000000e00003003a00602721005d
:1004700001002000020037000000200001002000e1
:10048000810f7000010032001400070000002000fe
:100490000000e00002003200000002000000000046
:1004a00084110200000000000040da000000fe009d
:1004b0004440a900400220000000e0000300320098
:1004c00000002000a00188004440a80000000600b1
:1004d0008a1f78008b1f78000000060091018800b9
:1004e000800478000000eb001a003700e28444002a
:1004f00032a0b4009905ba00e284440032a0b400ee
:100500009906ba00e284440032a0b4000006eb0071
:10051000476fde00fd07b200636ce10003003a00a4
:10052000ebff07000000eb000a003700606ce10001
:1005300004003a00005deb008b05e900fdff3e0082
:10054000040037006168e100010032000086eb0022
:100550000b00070019c7ba001905ba000e04e00025
:1005600003003a000a00e000e0ff3a000000060045
:10057000fe07b2009e0188008a047800f5ff37006c
:10058000395dba008b05e9000c003200295dba0024
:100590008b05e900080032000c00e00003003a007f
:1005a000e284440032a0b400f5ff370019ddba0040
:1005b0008b05e900faff3a008904e800e184440071
:1005c00032a0b4000000060000000000000000009f
:1005d000000000000000000000000000000000001b
:1005e0000040da000000fe000040da0000000600d3
:1005f000000005000000fa0082ff2f000f014100fb
:10060000cfb897001040800010007800310207003a
:100610000080fa0000000600c20007001401070075
:10062000740107009c0107004801070074000700df
:100630000000370084082000848f5000370032000b
:10064000848f500018003c0014082000848f500054
:1006500042003200848f500004003c000408200057
:10066000848f500060003200000005002408200044
:10067000848f50004300320044082000848f5000d3
:10068000f9ff3a00130278008480e9000200e000dc
:1006900074ba9700810978004f003a008002eb009d
:1006a0006033b80026003700040a2000848f500011
:1006b00046003200848f50000e003c0004092000e8
:1006c000848f5000e8ff3a0093007800e8805000e3
:1006d0003102be002103be00810978000498be00eb
:1006e0000690be00100020000200e0003d00320035
:1006f00000000600020c2000828f50002d00320006
:10070000020f2000828f5000d7ff3a00930078003c
:100710008189e90071ba9700e0ff37001302780081
:100720008480e9000200e00074ba97008109780033
:10073000060032000402fb00cfa2de00612bb900ec
:100740000498be000690be00100005000482fb0065
:100750008002eb006033b800f9ff370093007800a7
:100760004102be00810978000200e000030032006f
:100770004fabde0086037800f1ff37006033b8002e
:10078000efff370093007800e88050003102be0090
:100790002103be00810978000498be000690be00c7
:1007a000100020000200e0000100320000000600fe
:1007b00000000600c1ff2f009389400093007800dd
:1007c0001102be006033b800ddff370093007800ef
:1007d0008189e90071ba9700cfa2de00612bb900d0
:1007e000d7ff370000000600930078000182e9007f
:1007f0008409780071ba97000200e000a6ff370074
:1008000044082000848f500030003200848f500054
:100810000a003c0014082000848f50001b003200a6
:1008200024082000848f50001f003200040820009c
:10083000848f5000250032000000050004092000cc
:10084000848f500027003200848f500009003c0044
:1008500084082000848f5000f7ff3a00930078004e
:100860008189e900f1b89700010878008248780092
:1008700015003700040a2000848f50001300320056
:10088000040c2000848f5000ebff3a0093007800a6
:100890008189e900f1b89700010878006111b90079
:1008a0008288be0008003700930078008189e90043
:1008b000f1b89700010878006112b900612bb90006
:1008c0008498be008690be0010000500930078005a
:1008d0008189e900f1b89700010878008208780062
:1008e000f9ff3700930078008189e90071ba970019
:1008f000040878006110b9006109b900009abe00cf
:100900000292be00f0ff3700000006006080200069
:1009100000000600fdff070020408800004088001e
:1009200000000600e4874700889fbe008a9fbe0043
:100930008c9fbe008e1f78000006780001047800ae
:100940009106900021059000110778008ebf9f004e
:10095000b10590003202be002203be000400be00ba
:100960000601be004f98de00e10460000900e000cf
:100970003c00320060021200e0821a0060031b009b
:10098000e0831b000d00e000070035000e10a10001
:100990008ebf9f000900e00003003a000fb89700e7
:1009a0000028a300260032008a00e90003ff2f0080
:1009b0008f814100a200200008007800e8030700b2
:1009c0000900e00003003a008fb897000128a30057
:1009d0001f0032000000e900d1c2b3000900e000ae
:1009e00001003a00b1c2b30081757800e80044000c
:1009f0001101e90000015100808045000fba970005
:100a00008a0178000c007800720107009c009000b9
:100a10000188a3000400320098009000810f50006c
:100a200001003d00010078004f0778004f06be002e
:100a30004f05be004f04be004f00b100000006008d
:100a40000038a300d8ff3a008a007800d7ff3700ab
:100a50000138a300e5ff32000000e90001c2b30045
:100a6000e1ff37000d00e000c8ff3d00cbff37007d
:100a70000200fa00889fbe008a9fbe000005780031
:100a800001047800a105900011007800b0bf9f001c
:100a9000b1049000910090000100e00002003500d8
:100aa0000010a100b0bf9f003202be002203be00b2
:100ab00063ff2f008f814100820020008b007800af
:100ac00008007800a60307003fb99700f000610016
:100ad0000100e000030032000000e90001c3b300a0
:100ae000817478003fb99700e80061000100e000e0
:100af000030032000000e90001c2b30081747800f5
:100b0000e80044001101e900000151008080440028
:100b10003fba97008b0178000a0078002d0107008a
:100b20009a0090000188a300040032009800900011
:100b3000810f500001003d00010078004f05be000c
:100b40004f04be000080fa0000000600ea8747005c
:100b5000889fbe008a9fbe008e1f780080047800a8
:100b6000020778000300780082e2260053c72600bf
:100b7000f2b79f0083bf9f00c296220092bf9f00e2
:100b80000041eb00c2f79f00110490002105900086
:100b9000910578000e00e00002003a00eefe2f0002
:100ba0000f0747000000e00002003a000e00780046
:100bb000500307000800e00003003500880f5000d4
:100bc00001003600080078000b0278008a017800e6
:100bd000000178008e00780009007800fd00070011
:100be0004f0778004f05be004f04be00af00b100b4
:100bf000000006000200fa00889fbe008a9fbe0027
:100c00000005780001047800a1059000110078002b
:100c1000b0bf9f00b1049000910090000100e0007f
:100c2000020035000010a100b0bf9f003202be00dc
:100c30002203be0063ff2f008f814100a20020002d
:100c40008b0078000800780045030700e8004400a6
:100c50001101e90000015100808044003fba970073
:100c60008b0178000a007800da0007009a009000f3
:100c70000188a3000400320098009000810f50000a
:100c800001003d00010078004f05be004f04be008a
:100c90000080fa0000000600fa874700889fbe0027
:100ca0008a9fbe008c9fbe008e1f7800e0af9f0021
:100cb0000105780082bf9f00a3df9f009100900094
:100cc000aa0690009a057800ba0490000100e0009e
:100cd000550035000b10a1007081650082b79f00a0
:100ce0000fb997003202be002203be008fb19700f9
:100cf0000300e0004e003200e00f5200e08f5a0087
:100d0000e00f5b00e08f5b00490032000d86e900d8
:100d100068816500f2af9f000200e0000100320030
:100d20000c06e900680045001004e9000040eb00f3
:100d300080747c0001077800e10f54000d0034003e
:100d4000e00f5200e08f5a00e00f5b00e08f5b0085
:100d500039003a000e00e00037003c000100560068
:100d60000e0040000000e000020034000b18a30059
:100d700031003a000fb297000400e0000e0032008c
:100d80000fba97003400be002401be00e00f5000ef
:100d9000e08f5800e00f5900e08f59000600320044
:100da00008804400afd8970071f89f000884e900dc
:100db00000c3b30080747c007fa997000200e000ac
:100dc000030032000804e90000c2b30080747c0014
:100dd000680045001001e9000801510088804400c6
:100de0000b0278008d0178006fa89700790007004a
:100df000efa99700930090000188a300040032003f
:100e00009a009000810f500001003d000100780021
:100e10004f0778004f06be004f05be004f04be00ce
:100e2000af01b1000000060011002000aaff37004a
:100e30000d067800b6ff37000804e9006f00620075
:100e4000e90f500021003c000003b000afd997002b
:100e50008301fb00f2fb2f0003014100f90f510059
:100e600010003e00800178000350a0001306b1007e
:100e7000f98f51000b003e00d1b79f0094b79f003f
:100e8000a5b79f00b6b79f00c7b79f0048030700ec
:100e9000cfb397003fb39700afb297001fb2970050
:100ea000dfb0970080747c000e07e900430020004b
:100eb0008703d1000683d3008582d3000482d30048
:100ec0008301e900faff3a009bff37007005b0008c
:100ed000deff37000200fa00881f78000004780067
:100ee000e2bf9f00c2ff2f000f01410090000700ea
:100ef000980090000148a300010032000080eb0040
:100f00004f0478000080fa0000000600100078000e
:100f100060053700889fbe00000478001000900034
:100f20000088a30012003200c8049000828f540091
:100f300001003600820478000900e0000a00320057
:100f400009017800580090005c0207006a00440024
:100f50001080440050049800c8009000898450001c
:100f6000490498000048eb004f04be000000060052
:100f70000048a300fcff3a0008007800e3ff0700e8
:100f8000f9ff3700889fbe0000047800c00490007d
:100f9000828f540001003600820478000900e000ce
:100fa0000a0032000901780058009000430207004f
:100fb0006a0044001080440050049800c80090006b
:100fc00089845000490498000048eb004f04be009b
:100fd00000000600f2874700889fbe008a9fbe007f
:100fe0008c9fbe008e1f78008005780081067800f7
:100ff0008204780003057800610662000c00e000be
:1010000002003a00828f51000e003e000901780074
:101010008d0078000b007800beff0700890f550097
:1010200008003e00090578000a0078004f077800a4
:101030004f06be004f05be004f04be002f01b10099
:101040000000060009045500080778000801780030
:10105000f00f5400010036000201200001022000c0
:1010600020fe2f000f0040001b020700ef0f57006b
:101070000f003e004441de0000ff2f000091b90048
:101080000201440021fe2f008f8040000b007800f9
:10109000a0ff07000c00e000e3ff3a000901780020
:1010a0008d0078000b0078009aff0700deff370004
:1010b0000201200021fe2f008f8040000b007800ed
:1010c00094ff070070075700e8ff37000000050095
:1010d00000000500000005008040eb008181fb005e
:1010e000a284200083814100e2c279000504e0006f
:1010f00004003a0003014100924090000140780052
:10110000000006001002780094cf520006003a005a
:1011100003014100924090000408e800eacf50002b
:10112000eeff3600f5ff37008140e800fbff370097
:101130009400fa00889fbe008a9fbe008c9fbe006c
:10114000000578008204780091bf9f008005eb00c5
:101150009fb897001104e000020132000000eb008c
:1011600080b79f000081eb0092b79f00a0b79f005f
:1011700000f62f000f004000b0b79f0000082000cd
:10118000c0b79f000004eb0061407c000004e00059
:101190000300320052c2b300824f500028003a00d0
:1011a0000800e00006003200080178000a0078001c
:1011b00058ff07009fb897008880400091bf9f00ac
:1011c0009fbe970050c2b3009d4f1000df003a0051
:1011d0008d06e8009dbf9f001fb8970090407800e3
:1011e000b2c2b30082cf50001d00320082cf500047
:1011f00024003c0002c2b30082cf50001b0032002a
:1012000032c2b30082cf50001b003200a2c2b30032
:1012100082cf50002400320037020700a0b79f00a1
:101220009fb897001100fb000003b100e90f5000c8
:101230002a003e008100e80091bf9f00f8ff3700c0
:101240000804e800d0ff37008fb097000100a0002d
:1012500081b79f000000e80090bf9f00deff3700cd
:101260008fb097000120a000f9ff37008fb09700e2
:101270000130a000f6ff37008fb097000140a000ba
:10128000f3ff3700d2c2b30082cf5000eeff32002e
:1012900002c3b30082cf5000dcff3a008fb097004a
:1012a0000110a000eaff37000000e80090bf9f0097
:1012b00019007800808ce90070b89700a0b79f00f3
:1012c0000000e00005003d008fb09700e18068005d
:1012d00081b79f000000ea00a0b79f000fb0970001
:1012e0000008a300020032000010a10080b79f0098
:1012f0009fb89700e0c2b300914f10000e003a0073
:101300000000eb0090b79f000100e80090bf9f0035
:1013100091419000a2c2b30082cf510026003a0052
:101320008180e80091bf9f0019007800808ce9005f
:1013300070b8970090b79f0020ff2f000f0040006b
:1013400065ff0700004678001fb897001000fb00fb
:101350001002070091062000810f50008700320024
:10136000810f500036003c0031062000810f5000f4
:10137000e4003200810f500019003c0051022000af
:10138000810f5000f100320011062000810f500043
:101390005c0032009dbf9f000000eb0080b79f0003
:1013a000a0b79f000080eb0090b79f000002eb0009
:1013b0008001eb00ed003700cf01070090b79f00e0
:1013c0009fb897001100fb000003b100e90f500027
:1013d000d9ff3e008100e80091bf9f00f8ff370071
:1013e00041062000810f5000640032007106200089
:1013f000810f5000e7ff3c008c80fb000901780062
:10140000a0fe2f000f004000f00107000000e000e8
:10141000b80032001fb897008000e80091bf9f001d
:1014200090417800a2fe2f000f01410001fe2f0025
:101430008f8040000a00780025ff07004200370037
:1014400001072000810f500083003200810f5000ff
:1014500018003c00e1062000810f50009f00320080
:10146000f1062000810f5000caff3a008c80fb007b
:10147000890178000001eb00a0fe2f000f00400062
:101480006cfc07000000e0009a0032001fb89700d3
:101490000000e80090bf9f00a2fe2f000f01410056
:1014a00001fe2f008f8040000a00780070fd0700c9
:1014b0002500370051072000810f50004100320005
:1014c00081072000810f50005000320031072000ba
:1014d000810f5000afff3a0000c8b300804f5600a4
:1014e00084003a009fb897008100e80091bf9f00f8
:1014f00019007800808ce90070b997008001eb003a
:101500008d0037008c80fb0009017800a0fe2f00c1
:101510000f004000ad0107000000e0007500320040
:101520001fb897008000e80091bf9f0090417800ad
:10153000a2fe2f000f01410001fe2f008f8040000e
:101540000a007800e2fe0700000444000884450019
:10155000888f550088003400b004200000438800c4
:101560008085eb000b0078004f06be004f05be00e3
:101570004f04be000080fa00000006008c80fb00d3
:101580008901780012002000a0fe2f000f0040000b
:1015900028fc07000000e000560032001fb897004a
:1015a0000000e80090bf9f00a2fe2f000f01410045
:1015b00001fe2f008f8040000a007800d9fc070050
:1015c000e1ff37008c80fb00890178000001eb000f
:1015d000a0fe2f000f00400016fc07000000e000f6
:1015e000440032009fb897008100e80091bf9f003f
:1015f000a2fe2f000f01410001fe2f008f8040004e
:101600000a0078007bfd0700cfff37008c80fb00cd
:10161000890178000001eb00a0fe2f000f004000c0
:1016200004fc07000000e000320032001fb8970001
:101630008000e80091bf9f0090417800a2fe2f003b
:101640000f01410001fe2f008f8040000a0078004a
:1016500091fd0700bcff3700890178000001eb0015
:10166000010f2000a0fe2f000f004000f1fb07003b
:101670000000e0001f0032001fb897000000e800e3
:1016800090bf9f005fb09700efb097007fb19700c9
:101690008fb99700e00f5000e08f5800e00f59001d
:1016a000e08f59000b003a008fb697002fb69700d5
:1016b000208420008f0007000d0278008c01780044
:1016c00000017800218420000a00780041fe070014
:1016d0009dff370083c7b300d8ff3700088145005e
:1016e0008c80fb0089017800a0fe2f000f004000d5
:1016f00043fc07009fb897008100e80091bf9f005e
:1017000092ff370000c8b300804f5600f9ff3a003f
:101710001fb897000000e80090bf9f0019007800f4
:10172000808ce90060f89700a0ef9f001300200074
:10173000a2fe2f000f01410001fe2f008f8040000c
:101740000a00780001fd07007fff370000c8b300e2
:10175000804f5600e7ff3a001fb897000000e800ee
:1017600090bf9f000fb29700afb19700120020000a
:1017700081842000d4ff37008805780074fe37008c
:10178000889fbe000004be000000e00003003a0095
:101790000000eb004f04be000000060010009000a7
:1017a0000058a30009003a000000eb00200c98004c
:1017b00060049800500498000900e000f4ff320033
:1017c0001800780088fb0700f2ff3700d80090006f
:1017d00068009000808f5000f3ff3600b809900039
:1017e0000001eb008000eb0008007800030001001e
:1017f0000080eb00d80090000100e000eaff3a0012
:10180000e4ff3700889fbe000004be000000e00037
:1018100003003a000000eb004f04be000000060089
:10182000100090000058a30008003200d80090007b
:1018300068009000808f500016003e000000eb0012
:10184000200c98006004980050049800780a9000da
:1018500008109000800f5200060031000002520074
:10186000cfa2de00612bb900110020001800780023
:10187000c20007000000eb0000149800700c9800f4
:101880000900e000e3ff32001800780056fb070073
:10189000e1ff3700b80990000001eb008000eb0089
:1018a00008007800030001000080eb00d8009000e1
:1018b0000100e000e1ff3a00d7ff37008001e900b6
:1018c00002814000828f500001003a0000000600b3
:1018d000b1697800fbff37000200e000040032002d
:1018e000800178000201e900028009008159780036
:1018f00000000600800078000108a3000f003a00f5
:1019000001027800b4017800f2ef2f0003014100da
:101910008381ea00030161000308280003016100dc
:101920000200e0000c003200010178003204e00007
:101930000500320082007800fbff370001017800cb
:101940003204e00002003a0000805000000006006f
:1019500082007800e8ff370084007800e8ff370055
:101960000e00fa00889fbe008a9fbe008c9fbe00ba
:1019700024079800350798004607980057079800f5
:10198000010f78000206be00b000900061079800c9
:10199000130178001207980090059000680040003d
:1019a0001000e900000478000b00e00001003d0099
:1019b0001b0020008040eb00ee0190008171780058
:1019c0000b057800190020000800e0001c003c0016
:1019d0000900e00046003200080078004f06be0013
:1019e0004f05be004f04be000080fa000000060054
:1019f0006162b900612bb9002e009000be0090001a
:101a00004e019000de019000e30107002600370040
:101a10006162b900612bb9002e009000be009000f9
:101a20004e019000de019000d401070020079800cd
:101a3000310798004207980053079800e2ff3700eb
:101a40002e009000be0090004e019000de0190003c
:101a5000e00f5000e08f5800e00f5900e08f590070
:101a600009003a000a00e00007003c001e80150053
:101a70000a0040000000e000d5ff34009e00900006
:101a80000118a300d2ff32000804e900ea0f560053
:101a9000d7ff3a002e009000be0090004e0190004b
:101aa000de019000040107008004780001c3b30048
:101ab000014040006e01900000717c000a05e900c1
:101ac000ea0f5600d2ff3a002e009000be009000b0
:101ad0004e019000de0190009e0007002007980054
:101ae000310798004207980053079800b6ff370067
:101af0001d40a100b8ff3700800078001041780039
:101b00000000e80003c2b300834f5100faff320027
:101b10008201fb00e9815100e48f5100f6ff36009d
:101b2000b0c2b3000002eb00804f5100040032004d
:101b3000d0c2b300804f510002003a0014002000d0
:101b40008100e8008100e9000001eb00020037009d
:101b50006a11b900000151005100fb000003b100ff
:101b6000e90f5000faff36000400e00001003a00df
:101b70000201ea000200780000000600a0fd2f002c
:101b8000f1ff2f00350007004f89de008201780049
:101b900000000600f1fb2f0080804000f98f50000c
:101ba00001003e000050a00000000600f9ff3700d1
:101bb000f1f92f0080804000f98f500001003e00b5
:101bc000f005b20000000600f9ff3700881f78001a
:101bd000000478000000eb0003082000838f500011
:101be0001000350010082000808f50000f003400d6
:101bf0000000eb0033082000838f500009003a00fa
:101c0000120078006809500040ba9700d0ba9700d7
:101c100060bb9700f0bb9700049cbe000694be001a
:101c2000100020004f047800000006001200780029
:101c300064095000f0b8970060b8970011000700e1
:101c4000009cbe000294be00f5ff370000000600b5
:101c500030fb0700fdff0700fcff370002002f00ec
:101c6000f3ff2f00820f5000838f580004003600ce
:101c70000000ea0000438800f0ff2f00f1ff2f0072
:101c800000000600810378001d0007000001be006f
:101c90006000b8000478a30013003a006220e1005d
:101ca00015003e000d0039008301d1000281d300f0
:101cb0008180d3008301d1000281d3008180d300d1
:101cc0008301d1000281d3008180d3000538b000a8
:101cd000c42add00f300b2008381720007f0a70080
:101ce00003f0a0000000060083ff27000200200090
:101cf0006110b900f9ff370003ff2700f7ff370035
:101d0000c70ade00f107b200f50fb200080032008a
:101d1000e1cf4200020032000170a0002400050063
:101d2000810f700001003200040805004400050026
:101d3000810f700002003a00140005008502e900de
:101d40000000400081c04800fcff3b000170a00083
:101d5000240005001200fa00f4ff2f000500200007
:101d60006033b8000400e1000588e1000690e1005e
:101d70000798e10007003e00a400200011000900c0
:101d80000480d8008000eb006011b8000080fa00e9
:101d9000000006008e1f7800d4cc2c00c5cc2c008f
:101da000c6cc2c00c7cc2c00250007004e009000ac
:101db000de0090006e019000fe01900034002000d3
:101dc0008301d1000281d3008180d3000080d30041
:101dd0000402e900faff3a008f87e900ebff3700c1
:101de0000504b8001e1f4400050db8001e8f4c00ee
:101df0000c86d2001e1f45000514b8001e8f4d0032
:101e00008d86d2000c86d3001e1f4c00051db80025
:101e10001e8f4c000c86d2008d86d3001e1f4d00f5
:101e20009e854d008d86d2000c86d300609f4d00ac
:101e3000608f4e008006eb004fb797000000060051
:101e4000889fbe008a9fbe008c9fbe008e1f7800b8
:101e50006066b8006fb797000404b800081f7800e8
:101e6000040db8000a9f44000414b800089f4d00f8
:101e7000041db8000a9f4c00609f4d00608f4e000b
:101e80006fb7970062074700d5ff07006407470058
:101e900086027800d2ff07006607470087027800b5
:101ea000cfff07004f0778004f06be004f05be006a
:101eb0004f04be00000006001200fa00889fbe001a
:101ec0008a9fbe000205be000004be00f0ff2f0086
:101ed000010020006011b8000040e10001c8e100ed
:101ee00002d0e10003d8e10009003e00a20020007a
:101ef000110009000284d8006108b8006011b80020
:101f00004f05be004f04be000080fa00000006002e
:101f10000800be000a01be008eff07008e1f780079
:101f2000a4002000050020006033b800c4ff0700b3
:101f30003e005400be805c003e015d009e815d005d
:101f40006e00b1008f87e900edff37004f02b0004f
:101f5000889fbe008a9fbe008c9fbe008e1f7800a7
:101f6000d4b79f00e5b79f00f6b79f0087bf9f00db
:101f700004042000c4b79f000006eb006044b800d2
:101f80006055b80088b79f0099b79f00aab79f0017
:101f9000bbb79f000c0746000fb497009fb4970093
:101fa0002fb59700bfb597004f5ade008e0672001e
:101fb0000802440089824c000a034d008b834d00c7
:101fc0004f1cde006055b8008004eb000802720070
:101fd000898272000a0373008b837300c4af9f0071
:101fe000d5af9f00e6af9f00f7af9f000004400011
:101ff00081844800020549008385490088af9f001d
:1020000099af9f00aaaf9f00bbaf9f000800be0022
:102010000a01be000c00e0002d003d004500070055
:102020000440e10005c8e10006d0e10007d8e10066
:102030003e0036000d06e8000c00e0000b00350005
:1020400010002000010020006011b8000fac9700c4
:102050009fac97002fad9700bfad970000007400b4
:10206000818074000201750083817500cfb49700f0
:102070008904e900c9b79f000900e000c5ff3a00e4
:102080000c00e00005003d000fb297009fb29700e2
:102090002fb39700bfb3970026000700cfa4970087
:1020a0000900e00004003a000fb097009fb09700cd
:1020b0002fb19700bfb197004f0778004f06be00c1
:1020c0004f05be004f04be004f02b10000000600e5
:1020d000250007005fb49700efb497007fb5970025
:1020e0008fbd97000802520089825a000a035b00e4
:1020f0008b835b0084b79f0095b79f00a6b79f00b6
:10210000b7b79f001c002000170007000820e1005f
:1021100009a8e1000ab0e1000bb8e10001003900b4
:102120000006eb000c865600c3ff37000d06780052
:10213000c1ff37003fb49700cfb497005fb5970059
:10214000efb597000802420089824a000a034b005b
:102150008b834b00e4af9f00f5af9f0086b79f00d5
:1021600097b79f00000006002faa9700bfaa97000c
:102170004fab9700dfab970000000600881f780088
:1021800018002000881f780070ff07008f87e90083
:102190004f04780000000600801feb006bff070073
:1021a0008f87e90000000600881f7800e00f5000cc
:1021b000e08f5800e00f5900e08f59000c003d00ff
:1021c00011000700180020001400070002003d0065
:1021d000170007000004eb00e8ff07000800e0001c
:1021e00001003200080007004f04780000000600dc
:1021f0000004eb0009000700f7ff3d000c0007009a
:1022000018002000f4ff370060001000e080180084
:1022100060011900e081190000000600e00f520083
:10222000e08f5a00e00f5b00e08f5b0000000600cb
:1022300060021200e0821a0060031b00e0831b00b2
:1022400000000600889fbe008a9fbe00e00f52007b
:10225000e08f5a00e00f5b00e08f5b0004003d0060
:1022600060021200e0821a0060031b00e0831b0082
:102270000004eb00e00f5000e08f5800e00f590021
:10228000e08f590002003d00080007001800200000
:10229000c1ff07000800e000010032000300070052
:1022a0004f05be004f04be00000006006000100095
:1022b000e080180060011900e081190000000600ac
:020000040000fa
:1022c0004d6f000067650000207300006f62000022
:1022d0006965000020740000752000006c69000032
:1022e000637a000079630000206300006f20000023
:1022f00063680000636500003a2000002575000057
:08230000200d00000a0000009e
:020000040000fa
:102308000200fa00300007002135800000fe2f008f
:10231800008060007000b3002035880031368000ee
:1023280000fe2f00008060003000b30030368800c7
:1023380038000700c8a2a900c082a900c282a8006c
:10234800caa2a80000862c0041b920002af807007c
:1023580010002000000f7800400620009e00780042
:10236800808f5000020034000000eb00000f78005e
:10237800601680004500de00614060006140680032
:102388000080fb00610060004500dd005116800000
:102398000150a1000100700050168800004e2f0067
:1023a8000125200014f807001e007800000fe8003f
:1023b800801f780000162900801f78008bf807001e
:1023c800e4875700e4ff37000000fa00213a800054
:1023d80000fe2f00008060004001b300203a880012
:1023e800203a80000060a1000070a100203a880017
:1023f800313a800000e02f0080806000d01c20006f
:1024080001007000303a8800000000000080fa00e7
:10241800000006000000fa002002a9000011800058
:102428000010a1000020a1000011880020a2a9002e
:102438002062a900400120004011880021e2a80084
:102448002342a800000000000080fa0000000600f7
:102458000200fa00004f780002003700030009006c
:1024680000000000101180004900de00614060009b
:10247800e14f5000f9ff32001e80fb002011880058
:10248800000000000080fa00000006000800fa00c2
:102498001007980021079800320798000000eb0009
:1024a800000f780008003700ae0090006400470075
:1024b8000108e80010017800220798001140780010
:1024c800e3ff07001e0fe8001e007800be00900022
:1024d800808f5000f4ff3e003e0090000080fa001c
:0424e80000000600ea
:020000040000fa
:1024ec000008000042000000020000000608040082
:1024fc0008060800010003000000000000000000b6
:10250c0000000000000002000c00000000000000b1
:10251c00008607008404000000000000000000009a
:10252c00000000000000000000000000000000009f
:10253c00000000000000000000000000000000008f
:10254c0000000000420800001e0000000200000015
:10255c00286e69006c29000025006800076c0900d2
:10256c004c836a009074a0007ac0000080688800d8
:10257c0000846c00820081006008000002000000f2
:08258c00000000000000000047
:020000040000fa
:0200000401f009
:04000c00810000006f
:020000040000fa
:0200000401f009
:04001000e700000005
:020000040000fa
:0200000401f009
:040014005f00000089
:00000001FF
